:0600000014C0FECFFDCF8D
:10000600FCCFFBCFFACFF9CFF8CFF7CF50C0F5CF63
:10001600F4CFF3CFF2CFF1CFF0CFEFCFEECFEDCFDE
:10002600ECCFEBCFF894EE27ECBBF1E0FBBFEBBFD8
:10003600E5BFF8E1F1BDE1BD8DE0A2E0BB27ED93A0
:100046008A95E9F780E092E0A0E6ED930197E9F75B
:10005600EFE5EDBFE2E0EEBFC0EED0E047C0E8B3AB
:10006600E861E8BBE2B3EC60E2BB08957BD010EF39
:10007600F6DFC3986FD019F072D0E86016C0EFDFD4
:10008600C49868D019F06BD0E4600FC0E8DF92988E
:1000960061D019F064D0E26008C0E1DF93985AD0CD
:1000A60019F05DD0E16001C0E0E05FD008950A92EA
:1000B6001A92FA926A937A938A939A93AA93BA9324
:1000C600EA93FA93EFB7EA93E4E6E2BFCFDFE5BB44
:1000D600E991EFBFF991E991B991A9919991899126
:1000E60079916991F990199009901895E0E0EBBB28
:1000F600EABBE8BBE8E1E7BBE0E0E5BBEFEFE4BB6A
:10010600E0EFE2BBECE0E1BBE5E0E3BFE4E6E2BF43
:10011600E0E0ECBFEFBDECE0EEBDE0E0EDBDECBD38
:10012600E7BDE6BDEBBDEABDE9BDE8BDE2BDE5BDA7
:10013600E4BDE3BDE5BFE4BFE1E0E9BFE0E0EAB965
:10014600E0E8E8B9E0E0E0BFE6B9EDB9E6BF7894EB
:10015600FFCFFFCFE0B3E1230E2F10170895E12F55
:10016600E02708951A930A9308950991199108951D
:00000001FF
