:0E00000014C0FECFFDCFFCCFFBCFFACFF9CF5F
:10000E00F8CFF7CF7AC0F5CFF4CFF3CFF2CFF1CF51
:10001E00F0CFEFCFEECFEDCFECCFEBCFF894EE27C6
:10002E00ECBBF1E0FBBFEBBFE5BFF8E1F1BDE1BD1D
:10003E008DE0A2E0BB27ED938A95E9F780E092E090
:10004E00A0E6ED930197E9F7EFE5EDBFE2E0EEBF35
:10005E00C0EED0E071C0E8B3E861E8BBE2B3EC609B
:10006E00E2BB0895F8DFC398879902C0E1E80895CE
:10007E00869902C0E2E80895859902C0E4E80895E1
:10008E00849902C0E8E80895E6DFC498879902C013
:10009E00E1E40895869902C0E2E40895859902C0CC
:1000AE00E4E40895849902C0E8E40895D4DF9298B8
:1000BE00879902C0E1E20895869902C0E2E20895AE
:1000CE00859902C0E4E20895849902C0E8E2089599
:1000DE00C2DF9398879902C0E1E10895869902C024
:1000EE00E2E10895859902C0E4E10895849902C081
:1000FE00E8E10895B0DFE0E008950A921A92FA92CC
:10010E006A937A938A939A93AA93BA93EA93FA93F9
:10011E00EFB7EA93E4E6E2BFA5DFE5BBE991EFBFF7
:10012E00F991E991B991A9919991899179916991F1
:10013E00F990199009901895E0E0EBBBEABBE8BB8B
:10014E00E8E1E7BBE0E0E5BBEFEFE4BBE0EFE2BBED
:10015E00ECE0E1BBE5E0E3BFE4E6E2BFE0E0ECBFEC
:10016E00EFBDECE0EEBDE0E0EDBDECBDE7BDE6BD04
:10017E00EBBDEABDE9BDE8BDE2BDE5BDE4BDE3BD55
:10018E00E5BFE4BFE1E0E9BFE0E0EAB9E0E8E8B9E5
:10019E00E0E0E0BFE6B9EDB9E6BF7894FFCFFFCF60
:00000001FF
