:0C00000037C0FECFFDCFFCCFFBCFFACF06
:10000C00F9CFF8CFF7CFF7C0F5CF5BC0F3CF73C004
:10001C00F1CFF0CFEFCFEECFEDCFECCFEBCF102772
:10002C00E80364000A000100001000011000010048
:10003C0000004B65792072656C65617365640A0D0F
:10004C00004B657920707265737365640A0D00004E
:10005C00010002003C000F00E0003E000E00EF002B
:10006C004D000000F894EE27ECBBF1E0FBBFEBBFBA
:10007C00E5BFF8E1F1BDE1BD8DE0A2E0BB27ED935A
:10008C008A95E9F780E092E0A0E6ED930197E9F715
:10009C00ECE5F0E085919591009761F0A591B59113
:1000AC0005901590BF01F00105900D920197E1F7B5
:1000BC00FB01F0CFEFE5EDBFE2E0EEBFC0EED0E02C
:1000CC00D3C01ED127D11BB10CB1E12FEC7189F437
:1000DC00E52D53941AD1E350FF4F0083E0E4E5156E
:1000EC0009F455247394E0E4E71519F47724689423
:1000FC0020F813D10FC004D1882061F08A94E92D27
:10010C00939403D1E35CFE4FE081ECB9E0E4E91594
:10011C0009F49924E991EFBFF991E9911895E0E47C
:10012C00E815E9F3F894882011F45D990DC0E62DDB
:10013C006394EBD0E35CFE4FA881A083E0E4E6156A
:10014C0009F46624839402C0E881ECB97894219672
:10015C000895E8B3E861E8BBE2B3EC60E2BB089554
:10016C00F8DFC398879902C0E1E80895869902C028
:10017C00E2E80895859902C0E4E80895849902C0E4
:10018C00E8E80895E6DFC498879902C0E1E4089591
:10019C00869902C0E2E40895859902C0E4E40895CA
:1001AC00849902C0E8E40895D4DF9298879902C03C
:1001BC00E1E20895869902C0E2E20895859902C0B1
:1001CC00E4E20895849902C0E8E20895C2DF9398AE
:1001DC00879902C0E1E10895869902C0E2E1089591
:1001EC00859902C0E4E10895849902C0E8E108957C
:1001FC00B0DFE0E008950A921A92FA926A937A9329
:10020C008A939A93AA93BA93EA93FA93EFB7EA93E1
:10021C00E4E6E2BFA5DFE0937E01E0917D01A091D1
:10022C007E01EA1799F073D0E5BB71D0E0937D01A4
:10023C006ED0EA9374DF6BD0E03019F4E0EEF0E0AE
:10024C0002C0EFEEF0E0FA93EA9348D0E991EFBFE9
:10025C00F991E991B991A9919991899179916991C2
:10026C00F990199009901895E0E0EBBBEABBE8BB5C
:10027C00E8E1E7BBE0E0E5BBEFEFE4BBE0EFE2BBBE
:10028C00ECE0E1BBE5E0E3BFE4E6E2BFE0E0ECBFBD
:10029C00EFBDEEBDEDBDECBDE7BDE6BDEBBDEABD12
:1002AC00E9BDE8BDE2BDE5BDE4BDE3BDE5BFE4BF2E
:1002BC00E1E0E9BFE0E0EBB9E8EDEAB9E6E8E0BD82
:1002CC00E0E0E0BDE3E3E9B9E0E8E8B9E0E0E0BF95
:1002DC00E6B9EDB9E6BF7894FFCFFFCF1A93A981A9
:1002EC00BA81ED91A983BA831E2FE03019F01A93CD
:1002FC0016DFF5CFEAE0EA9312DF18812396089512
:10030C00EA93FA93EFB7EA930895F0E00895E09139
:10031C007E0108951A930A930895099119910895ED
:00000001FF
